{"abi":[{"type":"constructor","inputs":[],"stateMutability":"nonpayable"},{"type":"function","name":"DROP_THRESHOLD_BPS","inputs":[],"outputs":[{"name":"","type":"uint256","internalType":"uint256"}],"stateMutability":"view"},{"type":"function","name":"MIN_ABSOLUTE_DROP","inputs":[],"outputs":[{"name":"","type":"uint256","internalType":"uint256"}],"stateMutability":"view"},{"type":"function","name":"VAULT","inputs":[],"outputs":[{"name":"","type":"address","internalType":"address"}],"stateMutability":"view"},{"type":"function","name":"collect","inputs":[],"outputs":[{"name":"","type":"bytes","internalType":"bytes"}],"stateMutability":"view"},{"type":"function","name":"shouldRespond","inputs":[{"name":"data","type":"bytes[]","internalType":"bytes[]"}],"outputs":[{"name":"triggered","type":"bool","internalType":"bool"},{"name":"details","type":"bytes","internalType":"bytes"}],"stateMutability":"pure"}],"bytecode":{"object":"0x6080604052348015600e575f5ffd5b506111d08061001c5f395ff3fe608060405234801561000f575f5ffd5b5060043610610055575f3560e01c806320c7f30014610059578063411557d11461007757806344e6e4ce14610095578063c9df5abf146100c6578063e5225381146100e4575b5f5ffd5b610061610102565b60405161006e91906107b5565b60405180910390f35b61007f610106565b60405161008c919061080d565b60405180910390f35b6100af60048036038101906100aa9190610898565b61011e565b6040516100bd92919061096d565b60405180910390f35b6100ce610380565b6040516100db91906107b5565b60405180910390f35b6100ec610386565b6040516100f9919061099b565b60405180910390f35b5f81565b739e6d5a38127304256ba1583ff78e4373c3c58dab81565b5f60605f8484905090506002811015610172575f6040518060400160405280601481526020017f696e73756666696369656e742073616d706c65730000000000000000000000008152509250925050610379565b5f85855f818110610186576101856109bb565b5b905060200281019061019891906109f4565b8101906101a59190610b49565b90505f816020015190505f825f015190505f8190505f8390505f5f90505b86811015610246575f8b8b838181106101df576101de6109bb565b5b90506020028101906101f191906109f4565b8101906101fe9190610b49565b9050828160200151111561021457806020015192505b83815f0151101561022657805f015193505b84815f0151111561023857805f015194505b5080806001019150506101c3565b505f8114806102555750808410155b15610279575f60405180602001604052805f81525097509750505050505050610379565b5f84826102869190610ba1565b90505f5f11801561029657505f81105b156102bb575f60405180602001604052805f8152509850985050505050505050610379565b5f82612710836102cb9190610bd4565b6102d59190610c42565b90506101f4811061035c575f6102ea826103e2565b6102f3846103e2565b6102fc866103e2565b6103058a6103e2565b61030e896103e2565b6103178b6103e2565b6103208f6103e2565b6040516020016103369796959493929190610ebc565b60405160208183030381529060405290506001819a509a50505050505050505050610379565b5f60405180602001604052805f8152509950995050505050505050505b9250929050565b6101f481565b60605f6103a6739e6d5a38127304256ba1583ff78e4373c3c58dab61053f565b90506040518060400160405280438152602001828152506040516020016103cd9190610fa9565b60405160208183030381529060405291505090565b60605f8203610428576040518060400160405280600181526020017f3000000000000000000000000000000000000000000000000000000000000000815250905061053a565b5f8290505f5b5f821461045757808061044090610fc2565b915050600a826104509190610c42565b915061042e565b5f8167ffffffffffffffff81111561047257610471610a5a565b5b6040519080825280601f01601f1916602001820160405280156104a45781602001600182028036833780820191505090505b5090505f8290505b5f86146105325780806104be90611009565b915050600a866104ce9190611030565b60306104da9190611060565b60f81b8282815181106104f0576104ef6109bb565b5b60200101907effffffffffffffffffffffffffffffffffffffffffffffffffffffffffffff191690815f1a905350600a8661052b9190610c42565b95506104ac565b819450505050505b919050565b5f5f5f8373ffffffffffffffffffffffffffffffffffffffff166301e1d11460e01b604051602401604051602081830303815290604052907bffffffffffffffffffffffffffffffffffffffffffffffffffffffff19166020820180517bffffffffffffffffffffffffffffffffffffffffffffffffffffffff83818316178352505050506040516105d191906110cd565b5f60405180830381855afa9150503d805f8114610609576040519150601f19603f3d011682016040523d82523d5f602084013e61060e565b606091505b509150915081801561062257506020815110155b15610644578080602001905181019061063b91906110f7565b92505050610798565b8373ffffffffffffffffffffffffffffffffffffffff166040516024016040516020818303038152906040527f18160ddd000000000000000000000000000000000000000000000000000000007bffffffffffffffffffffffffffffffffffffffffffffffffffffffff19166020820180517bffffffffffffffffffffffffffffffffffffffffffffffffffffffff83818316178352505050506040516106eb91906110cd565b5f60405180830381855afa9150503d805f8114610723576040519150601f19603f3d011682016040523d82523d5f602084013e610728565b606091505b50809250819350505081801561074057506020815110155b61077f576040517f08c379a00000000000000000000000000000000000000000000000000000000081526004016107769061117c565b60405180910390fd5b8080602001905181019061079391906110f7565b925050505b919050565b5f819050919050565b6107af8161079d565b82525050565b5f6020820190506107c85f8301846107a6565b92915050565b5f73ffffffffffffffffffffffffffffffffffffffff82169050919050565b5f6107f7826107ce565b9050919050565b610807816107ed565b82525050565b5f6020820190506108205f8301846107fe565b92915050565b5f604051905090565b5f5ffd5b5f5ffd5b5f5ffd5b5f5ffd5b5f5ffd5b5f5f83601f84011261085857610857610837565b5b8235905067ffffffffffffffff8111156108755761087461083b565b5b6020830191508360208202830111156108915761089061083f565b5b9250929050565b5f5f602083850312156108ae576108ad61082f565b5b5f83013567ffffffffffffffff8111156108cb576108ca610833565b5b6108d785828601610843565b92509250509250929050565b5f8115159050919050565b6108f7816108e3565b82525050565b5f81519050919050565b5f82825260208201905092915050565b8281835e5f83830152505050565b5f601f19601f8301169050919050565b5f61093f826108fd565b6109498185610907565b9350610959818560208601610917565b61096281610925565b840191505092915050565b5f6040820190506109805f8301856108ee565b81810360208301526109928184610935565b90509392505050565b5f6020820190508181035f8301526109b38184610935565b905092915050565b7f4e487b71000000000000000000000000000000000000000000000000000000005f52603260045260245ffd5b5f5ffd5b5f5ffd5b5f5ffd5b5f5f83356001602003843603038112610a1057610a0f6109e8565b5b80840192508235915067ffffffffffffffff821115610a3257610a316109ec565b5b602083019250600182023603831315610a4e57610a4d6109f0565b5b509250929050565b5f5ffd5b7f4e487b71000000000000000000000000000000000000000000000000000000005f52604160045260245ffd5b610a9082610925565b810181811067ffffffffffffffff82111715610aaf57610aae610a5a565b5b80604052505050565b5f610ac1610826565b9050610acd8282610a87565b919050565b610adb8161079d565b8114610ae5575f5ffd5b50565b5f81359050610af681610ad2565b92915050565b5f60408284031215610b1157610b10610a56565b5b610b1b6040610ab8565b90505f610b2a84828501610ae8565b5f830152506020610b3d84828501610ae8565b60208301525092915050565b5f60408284031215610b5e57610b5d61082f565b5b5f610b6b84828501610afc565b91505092915050565b7f4e487b71000000000000000000000000000000000000000000000000000000005f52601160045260245ffd5b5f610bab8261079d565b9150610bb68361079d565b9250828203905081811115610bce57610bcd610b74565b5b92915050565b5f610bde8261079d565b9150610be98361079d565b9250828202610bf78161079d565b91508282048414831517610c0e57610c0d610b74565b5b5092915050565b7f4e487b71000000000000000000000000000000000000000000000000000000005f52601260045260245ffd5b5f610c4c8261079d565b9150610c578361079d565b925082610c6757610c66610c15565b5b828204905092915050565b5f81905092915050565b7f54564c2064726f702064657465637465643a20000000000000000000000000005f82015250565b5f610cb0601383610c72565b9150610cbb82610c7c565b601382019050919050565b5f81519050919050565b5f610cda82610cc6565b610ce48185610c72565b9350610cf4818560208601610917565b80840191505092915050565b7f20627073202800000000000000000000000000000000000000000000000000005f82015250565b5f610d34600683610c72565b9150610d3f82610d00565b600682019050919050565b7f20756e697473292066726f6d20000000000000000000000000000000000000005f82015250565b5f610d7e600d83610c72565b9150610d8982610d4a565b600d82019050919050565b7f20746f20000000000000000000000000000000000000000000000000000000005f82015250565b5f610dc8600483610c72565b9150610dd382610d94565b600482019050919050565b7f206163726f737320626c6f636b732000000000000000000000000000000000005f82015250565b5f610e12600f83610c72565b9150610e1d82610dde565b600f82019050919050565b7f2d3e0000000000000000000000000000000000000000000000000000000000005f82015250565b5f610e5c600283610c72565b9150610e6782610e28565b600282019050919050565b7f3b2073616d706c65733d000000000000000000000000000000000000000000005f82015250565b5f610ea6600a83610c72565b9150610eb182610e72565b600a82019050919050565b5f610ec682610ca4565b9150610ed2828a610cd0565b9150610edd82610d28565b9150610ee98289610cd0565b9150610ef482610d72565b9150610f008288610cd0565b9150610f0b82610dbc565b9150610f178287610cd0565b9150610f2282610e06565b9150610f2e8286610cd0565b9150610f3982610e50565b9150610f458285610cd0565b9150610f5082610e9a565b9150610f5c8284610cd0565b915081905098975050505050505050565b610f768161079d565b82525050565b604082015f820151610f905f850182610f6d565b506020820151610fa36020850182610f6d565b50505050565b5f604082019050610fbc5f830184610f7c565b92915050565b5f610fcc8261079d565b91507fffffffffffffffffffffffffffffffffffffffffffffffffffffffffffffffff8203610ffe57610ffd610b74565b5b600182019050919050565b5f6110138261079d565b91505f820361102557611024610b74565b5b600182039050919050565b5f61103a8261079d565b91506110458361079d565b92508261105557611054610c15565b5b828206905092915050565b5f61106a8261079d565b91506110758361079d565b925082820190508082111561108d5761108c610b74565b5b92915050565b5f81905092915050565b5f6110a7826108fd565b6110b18185611093565b93506110c1818560208601610917565b80840191505092915050565b5f6110d8828461109d565b915081905092915050565b5f815190506110f181610ad2565b92915050565b5f6020828403121561110c5761110b61082f565b5b5f611119848285016110e3565b91505092915050565b5f82825260208201905092915050565b7f5661756c743a206e6f206173736574732f737570706c790000000000000000005f82015250565b5f611166601783611122565b915061117182611132565b602082019050919050565b5f6020820190508181035f8301526111938161115a565b905091905056fea26469706673582212201b2b40f6c75563bc6610b167ff3fc39d0d900675916989ae66f1e16029fb098264736f6c634300081e0033","linkReferences":{}},"methodIdentifiers":{"DROP_THRESHOLD_BPS()":"c9df5abf","MIN_ABSOLUTE_DROP()":"20c7f300","VAULT()":"411557d1","collect()":"e5225381","shouldRespond(bytes[])":"44e6e4ce"},"id":0}