{"abi":[{"type":"constructor","inputs":[{"name":"initialAssets","type":"uint256","internalType":"uint256"}],"stateMutability":"nonpayable"},{"type":"function","name":"setTotalAssets","inputs":[{"name":"newAssets","type":"uint256","internalType":"uint256"}],"outputs":[],"stateMutability":"nonpayable"},{"type":"function","name":"totalAssets","inputs":[],"outputs":[{"name":"","type":"uint256","internalType":"uint256"}],"stateMutability":"view"},{"type":"event","name":"AssetsSet","inputs":[{"name":"value","type":"uint256","indexed":false,"internalType":"uint256"}],"anonymous":false}],"bytecode":{"object":"0x6080604052348015600e575f5ffd5b506040516102183803806102188339818101604052810190602e9190606b565b805f81905550506091565b5f5ffd5b5f819050919050565b604d81603d565b81146056575f5ffd5b50565b5f815190506065816046565b92915050565b5f60208284031215607d57607c6039565b5b5f6088848285016059565b91505092915050565b61017a8061009e5f395ff3fe608060405234801561000f575f5ffd5b5060043610610034575f3560e01c806301e1d114146100385780631765b31314610056575b5f5ffd5b610040610072565b60405161004d91906100d2565b60405180910390f35b610070600480360381019061006b9190610119565b61007a565b005b5f5f54905090565b805f819055507fb689879b1f7dc3dca4116253f29d4c9b4f353039e3954a322d82c303a90544b5816040516100af91906100d2565b60405180910390a150565b5f819050919050565b6100cc816100ba565b82525050565b5f6020820190506100e55f8301846100c3565b92915050565b5f5ffd5b6100f8816100ba565b8114610102575f5ffd5b50565b5f81359050610113816100ef565b92915050565b5f6020828403121561012e5761012d6100eb565b5b5f61013b84828501610105565b9150509291505056fea2646970667358221220dd390472a1ee121dc6f360bfbab7314fdb21d3fedaae431ec4af389fae03338764736f6c634300081e0033","linkReferences":{}},"methodIdentifiers":{"setTotalAssets(uint256)":"1765b313","totalAssets()":"01e1d114"},"id":0}