{"abi":[{"type":"function","name":"handleVaultDrop","inputs":[{"name":"details","type":"string","internalType":"string"}],"outputs":[],"stateMutability":"nonpayable"},{"type":"event","name":"VaultDrop","inputs":[{"name":"details","type":"string","indexed":false,"internalType":"string"}],"anonymous":false}],"bytecode":{"object":"0x6080604052348015600e575f5ffd5b506101ec8061001c5f395ff3fe608060405234801561000f575f5ffd5b5060043610610029575f3560e01c8063825db9be1461002d575b5f5ffd5b610047600480360381019061004291906100ef565b610049565b005b7f261adf816af9b88a2fa55acf95a285cd1398098bbeb595864f3353c17c47d3a6828260405161007a929190610194565b60405180910390a15050565b5f5ffd5b5f5ffd5b5f5ffd5b5f5ffd5b5f5ffd5b5f5f83601f8401126100af576100ae61008e565b5b8235905067ffffffffffffffff8111156100cc576100cb610092565b5b6020830191508360018202830111156100e8576100e7610096565b5b9250929050565b5f5f6020838503121561010557610104610086565b5b5f83013567ffffffffffffffff8111156101225761012161008a565b5b61012e8582860161009a565b92509250509250929050565b5f82825260208201905092915050565b828183375f83830152505050565b5f601f19601f8301169050919050565b5f610173838561013a565b935061018083858461014a565b61018983610158565b840190509392505050565b5f6020820190508181035f8301526101ad818486610168565b9050939250505056fea2646970667358221220d091383684051108d9d4a8b4bf8da5cd7b5e8a1d37dc830abf04905ef496994c64736f6c634300081e0033","linkReferences":{}},"methodIdentifiers":{"handleVaultDrop(string)":"825db9be"},"id":2}